{
  "_format": "hh-sol-artifact-1",
  "contractName": "ERC20Homework",
  "sourceName": "contracts/ERC20Homework.sol",
  "abi": [
    {
      "inputs": [],
      "stateMutability": "nonpayable",
      "type": "constructor"
    },
    {
      "anonymous": false,
      "inputs": [
        {
          "indexed": true,
          "internalType": "address",
          "name": "owner",
          "type": "address"
        },
        {
          "indexed": true,
          "internalType": "address",
          "name": "spender",
          "type": "address"
        },
        {
          "indexed": false,
          "internalType": "uint256",
          "name": "value",
          "type": "uint256"
        }
      ],
      "name": "Approval",
      "type": "event"
    },
    {
      "anonymous": false,
      "inputs": [
        {
          "indexed": true,
          "internalType": "address",
          "name": "previousOwner",
          "type": "address"
        },
        {
          "indexed": true,
          "internalType": "address",
          "name": "newOwner",
          "type": "address"
        }
      ],
      "name": "OwnershipTransferred",
      "type": "event"
    },
    {
      "anonymous": false,
      "inputs": [
        {
          "indexed": true,
          "internalType": "address",
          "name": "from",
          "type": "address"
        },
        {
          "indexed": true,
          "internalType": "address",
          "name": "to",
          "type": "address"
        },
        {
          "indexed": false,
          "internalType": "uint256",
          "name": "value",
          "type": "uint256"
        }
      ],
      "name": "Transfer",
      "type": "event"
    },
    {
      "inputs": [
        {
          "internalType": "address",
          "name": "owner",
          "type": "address"
        },
        {
          "internalType": "address",
          "name": "spender",
          "type": "address"
        }
      ],
      "name": "allowance",
      "outputs": [
        {
          "internalType": "uint256",
          "name": "",
          "type": "uint256"
        }
      ],
      "stateMutability": "view",
      "type": "function"
    },
    {
      "inputs": [
        {
          "internalType": "address",
          "name": "spender",
          "type": "address"
        },
        {
          "internalType": "uint256",
          "name": "amount",
          "type": "uint256"
        }
      ],
      "name": "approve",
      "outputs": [
        {
          "internalType": "bool",
          "name": "",
          "type": "bool"
        }
      ],
      "stateMutability": "nonpayable",
      "type": "function"
    },
    {
      "inputs": [
        {
          "internalType": "address",
          "name": "account",
          "type": "address"
        }
      ],
      "name": "balanceOf",
      "outputs": [
        {
          "internalType": "uint256",
          "name": "",
          "type": "uint256"
        }
      ],
      "stateMutability": "view",
      "type": "function"
    },
    {
      "inputs": [
        {
          "internalType": "uint256",
          "name": "_amount",
          "type": "uint256"
        }
      ],
      "name": "burn",
      "outputs": [],
      "stateMutability": "nonpayable",
      "type": "function"
    },
    {
      "inputs": [],
      "name": "burnRatio",
      "outputs": [
        {
          "internalType": "uint256",
          "name": "",
          "type": "uint256"
        }
      ],
      "stateMutability": "view",
      "type": "function"
    },
    {
      "inputs": [],
      "name": "decimals",
      "outputs": [
        {
          "internalType": "uint8",
          "name": "",
          "type": "uint8"
        }
      ],
      "stateMutability": "view",
      "type": "function"
    },
    {
      "inputs": [
        {
          "internalType": "address",
          "name": "spender",
          "type": "address"
        },
        {
          "internalType": "uint256",
          "name": "subtractedValue",
          "type": "uint256"
        }
      ],
      "name": "decreaseAllowance",
      "outputs": [
        {
          "internalType": "bool",
          "name": "",
          "type": "bool"
        }
      ],
      "stateMutability": "nonpayable",
      "type": "function"
    },
    {
      "inputs": [],
      "name": "feeAddress",
      "outputs": [
        {
          "internalType": "address",
          "name": "",
          "type": "address"
        }
      ],
      "stateMutability": "view",
      "type": "function"
    },
    {
      "inputs": [],
      "name": "feeRatio",
      "outputs": [
        {
          "internalType": "uint256",
          "name": "",
          "type": "uint256"
        }
      ],
      "stateMutability": "view",
      "type": "function"
    },
    {
      "inputs": [
        {
          "internalType": "address",
          "name": "spender",
          "type": "address"
        },
        {
          "internalType": "uint256",
          "name": "addedValue",
          "type": "uint256"
        }
      ],
      "name": "increaseAllowance",
      "outputs": [
        {
          "internalType": "bool",
          "name": "",
          "type": "bool"
        }
      ],
      "stateMutability": "nonpayable",
      "type": "function"
    },
    {
      "inputs": [
        {
          "internalType": "address",
          "name": "_address",
          "type": "address"
        },
        {
          "internalType": "uint256",
          "name": "_amount",
          "type": "uint256"
        }
      ],
      "name": "mint",
      "outputs": [],
      "stateMutability": "nonpayable",
      "type": "function"
    },
    {
      "inputs": [],
      "name": "name",
      "outputs": [
        {
          "internalType": "string",
          "name": "",
          "type": "string"
        }
      ],
      "stateMutability": "view",
      "type": "function"
    },
    {
      "inputs": [],
      "name": "owner",
      "outputs": [
        {
          "internalType": "address",
          "name": "",
          "type": "address"
        }
      ],
      "stateMutability": "view",
      "type": "function"
    },
    {
      "inputs": [],
      "name": "renounceOwnership",
      "outputs": [],
      "stateMutability": "nonpayable",
      "type": "function"
    },
    {
      "inputs": [
        {
          "internalType": "uint256",
          "name": "_feeRatio",
          "type": "uint256"
        },
        {
          "internalType": "uint256",
          "name": "_burnRatio",
          "type": "uint256"
        },
        {
          "internalType": "address",
          "name": "_feeAddress",
          "type": "address"
        }
      ],
      "name": "setRatioAndAddress",
      "outputs": [],
      "stateMutability": "nonpayable",
      "type": "function"
    },
    {
      "inputs": [],
      "name": "symbol",
      "outputs": [
        {
          "internalType": "string",
          "name": "",
          "type": "string"
        }
      ],
      "stateMutability": "view",
      "type": "function"
    },
    {
      "inputs": [],
      "name": "totalSupply",
      "outputs": [
        {
          "internalType": "uint256",
          "name": "",
          "type": "uint256"
        }
      ],
      "stateMutability": "view",
      "type": "function"
    },
    {
      "inputs": [
        {
          "internalType": "address",
          "name": "_to",
          "type": "address"
        },
        {
          "internalType": "uint256",
          "name": "_amount",
          "type": "uint256"
        }
      ],
      "name": "transfer",
      "outputs": [
        {
          "internalType": "bool",
          "name": "",
          "type": "bool"
        }
      ],
      "stateMutability": "nonpayable",
      "type": "function"
    },
    {
      "inputs": [
        {
          "internalType": "address",
          "name": "from",
          "type": "address"
        },
        {
          "internalType": "address",
          "name": "to",
          "type": "address"
        },
        {
          "internalType": "uint256",
          "name": "amount",
          "type": "uint256"
        }
      ],
      "name": "transferFrom",
      "outputs": [
        {
          "internalType": "bool",
          "name": "",
          "type": "bool"
        }
      ],
      "stateMutability": "nonpayable",
      "type": "function"
    },
    {
      "inputs": [
        {
          "internalType": "address",
          "name": "newOwner",
          "type": "address"
        }
      ],
      "name": "transferOwnership",
      "outputs": [],
      "stateMutability": "nonpayable",
      "type": "function"
    }
  ],
  "bytecode": "0x60806040523480156200001157600080fd5b506040518060400160405280600a81526020017f5465737420546f6b656e000000000000000000000000000000000000000000008152506040518060400160405280600381526020017f545443000000000000000000000000000000000000000000000000000000000081525081600390816200008f919062000412565b508060049081620000a1919062000412565b505050620000c4620000b8620000ca60201b60201c565b620000d260201b60201c565b620004f9565b600033905090565b6000600560009054906101000a900473ffffffffffffffffffffffffffffffffffffffff16905081600560006101000a81548173ffffffffffffffffffffffffffffffffffffffff021916908373ffffffffffffffffffffffffffffffffffffffff1602179055508173ffffffffffffffffffffffffffffffffffffffff168173ffffffffffffffffffffffffffffffffffffffff167f8be0079c531659141344cd1fd0a4f28419497f9722a3daafe3b4186f6b6457e060405160405180910390a35050565b600081519050919050565b7f4e487b7100000000000000000000000000000000000000000000000000000000600052604160045260246000fd5b7f4e487b7100000000000000000000000000000000000000000000000000000000600052602260045260246000fd5b600060028204905060018216806200021a57607f821691505b60208210810362000230576200022f620001d2565b5b50919050565b60008190508160005260206000209050919050565b60006020601f8301049050919050565b600082821b905092915050565b6000600883026200029a7fffffffffffffffffffffffffffffffffffffffffffffffffffffffffffffffff826200025b565b620002a686836200025b565b95508019841693508086168417925050509392505050565b6000819050919050565b6000819050919050565b6000620002f3620002ed620002e784620002be565b620002c8565b620002be565b9050919050565b6000819050919050565b6200030f83620002d2565b620003276200031e82620002fa565b84845462000268565b825550505050565b600090565b6200033e6200032f565b6200034b81848462000304565b505050565b5b8181101562000373576200036760008262000334565b60018101905062000351565b5050565b601f821115620003c2576200038c8162000236565b62000397846200024b565b81016020851015620003a7578190505b620003bf620003b6856200024b565b83018262000350565b50505b505050565b600082821c905092915050565b6000620003e760001984600802620003c7565b1980831691505092915050565b6000620004028383620003d4565b9150826002028217905092915050565b6200041d8262000198565b67ffffffffffffffff811115620004395762000438620001a3565b5b62000445825462000201565b6200045282828562000377565b600060209050601f8311600181146200048a576000841562000475578287015190505b620004818582620003f4565b865550620004f1565b601f1984166200049a8662000236565b60005b82811015620004c4578489015182556001820191506020850194506020810190506200049d565b86831015620004e45784890151620004e0601f891682620003d4565b8355505b6001600288020188555050505b505050505050565b6121d280620005096000396000f3fe608060405234801561001057600080fd5b506004361061012c5760003560e01c806342966c68116100ad57806395d89b411161007157806395d89b4114610321578063a457c2d71461033f578063a9059cbb1461036f578063dd62ed3e1461039f578063f2fde38b146103cf5761012c565b806342966c681461028f5780635192c82c146102ab57806370a08231146102c9578063715018a6146102f95780638da5cb5b146103035761012c565b806339509351116100f457806339509351146101eb57806340c10f191461021b57806340c123cf14610237578063412753581461025357806341744dd4146102715761012c565b806306fdde0314610131578063095ea7b31461014f57806318160ddd1461017f57806323b872dd1461019d578063313ce567146101cd575b600080fd5b6101396103eb565b60405161014691906114cb565b60405180910390f35b61016960048036038101906101649190611586565b61047d565b60405161017691906115e1565b60405180910390f35b6101876104a0565b604051610194919061160b565b60405180910390f35b6101b760048036038101906101b29190611626565b6104aa565b6040516101c491906115e1565b60405180910390f35b6101d56104d9565b6040516101e29190611695565b60405180910390f35b61020560048036038101906102009190611586565b6104e2565b60405161021291906115e1565b60405180910390f35b61023560048036038101906102309190611586565b610519565b005b610251600480360381019061024c91906116b0565b61052f565b005b61025b61058b565b6040516102689190611712565b60405180910390f35b6102796105b1565b604051610286919061160b565b60405180910390f35b6102a960048036038101906102a4919061172d565b6105b7565b005b6102b3610617565b6040516102c0919061160b565b60405180910390f35b6102e360048036038101906102de919061175a565b61061d565b6040516102f0919061160b565b60405180910390f35b610301610665565b005b61030b610679565b6040516103189190611712565b60405180910390f35b6103296106a3565b60405161033691906114cb565b60405180910390f35b61035960048036038101906103549190611586565b610735565b60405161036691906115e1565b60405180910390f35b61038960048036038101906103849190611586565b6107ac565b60405161039691906115e1565b60405180910390f35b6103b960048036038101906103b49190611787565b6109ab565b6040516103c6919061160b565b60405180910390f35b6103e960048036038101906103e4919061175a565b610a32565b005b6060600380546103fa906117f6565b80601f0160208091040260200160405190810160405280929190818152602001828054610426906117f6565b80156104735780601f1061044857610100808354040283529160200191610473565b820191906000526020600020905b81548152906001019060200180831161045657829003601f168201915b5050505050905090565b600080610488610ab5565b9050610495818585610abd565b600191505092915050565b6000600254905090565b6000806104b5610ab5565b90506104c2858285610c86565b6104cd858585610d12565b60019150509392505050565b60006012905090565b6000806104ed610ab5565b905061050e8185856104ff85896109ab565b6105099190611856565b610abd565b600191505092915050565b610521610f88565b61052b8282611006565b5050565b610537610f88565b826006819055508160078190555080600860006101000a81548173ffffffffffffffffffffffffffffffffffffffff021916908373ffffffffffffffffffffffffffffffffffffffff160217905550505050565b600860009054906101000a900473ffffffffffffffffffffffffffffffffffffffff1681565b60065481565b6105bf610f88565b806105c93361061d565b101561060a576040517f08c379a0000000000000000000000000000000000000000000000000000000008152600401610601906118fc565b60405180910390fd5b610614338261115c565b50565b60075481565b60008060008373ffffffffffffffffffffffffffffffffffffffff1673ffffffffffffffffffffffffffffffffffffffff168152602001908152602001600020549050919050565b61066d610f88565b6106776000611329565b565b6000600560009054906101000a900473ffffffffffffffffffffffffffffffffffffffff16905090565b6060600480546106b2906117f6565b80601f01602080910402602001604051908101604052809291908181526020018280546106de906117f6565b801561072b5780601f106107005761010080835404028352916020019161072b565b820191906000526020600020905b81548152906001019060200180831161070e57829003601f168201915b5050505050905090565b600080610740610ab5565b9050600061074e82866109ab565b905083811015610793576040517f08c379a000000000000000000000000000000000000000000000000000000000815260040161078a9061198e565b60405180910390fd5b6107a08286868403610abd565b60019250505092915050565b6000816107b83361061d565b10156107f9576040517f08c379a00000000000000000000000000000000000000000000000000000000081526004016107f0906119fa565b60405180910390fd5b600073ffffffffffffffffffffffffffffffffffffffff16600860009054906101000a900473ffffffffffffffffffffffffffffffffffffffff1673ffffffffffffffffffffffffffffffffffffffff160361088a576040517f08c379a000000000000000000000000000000000000000000000000000000000815260040161088190611a66565b60405180910390fd5b6000600654116108cf576040517f08c379a00000000000000000000000000000000000000000000000000000000081526004016108c690611ad2565b60405180910390fd5b60006108fa6103e86108ec600654866113ef90919063ffffffff16565b61140590919063ffffffff16565b905060006109276103e8610919600754876113ef90919063ffffffff16565b61140590919063ffffffff16565b9050600061095082610942858861141b90919063ffffffff16565b61141b90919063ffffffff16565b905061095d338783610d12565b61098a33600860009054906101000a900473ffffffffffffffffffffffffffffffffffffffff1685610d12565b600082111561099e5761099d338361115c565b5b6001935050505092915050565b6000600160008473ffffffffffffffffffffffffffffffffffffffff1673ffffffffffffffffffffffffffffffffffffffff16815260200190815260200160002060008373ffffffffffffffffffffffffffffffffffffffff1673ffffffffffffffffffffffffffffffffffffffff16815260200190815260200160002054905092915050565b610a3a610f88565b600073ffffffffffffffffffffffffffffffffffffffff168173ffffffffffffffffffffffffffffffffffffffff1603610aa9576040517f08c379a0000000000000000000000000000000000000000000000000000000008152600401610aa090611b64565b60405180910390fd5b610ab281611329565b50565b600033905090565b600073ffffffffffffffffffffffffffffffffffffffff168373ffffffffffffffffffffffffffffffffffffffff1603610b2c576040517f08c379a0000000000000000000000000000000000000000000000000000000008152600401610b2390611bf6565b60405180910390fd5b600073ffffffffffffffffffffffffffffffffffffffff168273ffffffffffffffffffffffffffffffffffffffff1603610b9b576040517f08c379a0000000000000000000000000000000000000000000000000000000008152600401610b9290611c88565b60405180910390fd5b80600160008573ffffffffffffffffffffffffffffffffffffffff1673ffffffffffffffffffffffffffffffffffffffff16815260200190815260200160002060008473ffffffffffffffffffffffffffffffffffffffff1673ffffffffffffffffffffffffffffffffffffffff168152602001908152602001600020819055508173ffffffffffffffffffffffffffffffffffffffff168373ffffffffffffffffffffffffffffffffffffffff167f8c5be1e5ebec7d5bd14f71427d1e84f3dd0314c0f7b2291e5b200ac8c7c3b92583604051610c79919061160b565b60405180910390a3505050565b6000610c9284846109ab565b90507fffffffffffffffffffffffffffffffffffffffffffffffffffffffffffffffff8114610d0c5781811015610cfe576040517f08c379a0000000000000000000000000000000000000000000000000000000008152600401610cf590611cf4565b60405180910390fd5b610d0b8484848403610abd565b5b50505050565b600073ffffffffffffffffffffffffffffffffffffffff168373ffffffffffffffffffffffffffffffffffffffff1603610d81576040517f08c379a0000000000000000000000000000000000000000000000000000000008152600401610d7890611d86565b60405180910390fd5b600073ffffffffffffffffffffffffffffffffffffffff168273ffffffffffffffffffffffffffffffffffffffff1603610df0576040517f08c379a0000000000000000000000000000000000000000000000000000000008152600401610de790611e18565b60405180910390fd5b610dfb838383611431565b60008060008573ffffffffffffffffffffffffffffffffffffffff1673ffffffffffffffffffffffffffffffffffffffff16815260200190815260200160002054905081811015610e81576040517f08c379a0000000000000000000000000000000000000000000000000000000008152600401610e7890611eaa565b60405180910390fd5b8181036000808673ffffffffffffffffffffffffffffffffffffffff1673ffffffffffffffffffffffffffffffffffffffff16815260200190815260200160002081905550816000808573ffffffffffffffffffffffffffffffffffffffff1673ffffffffffffffffffffffffffffffffffffffff168152602001908152602001600020600082825401925050819055508273ffffffffffffffffffffffffffffffffffffffff168473ffffffffffffffffffffffffffffffffffffffff167fddf252ad1be2c89b69c2b068fc378daa952ba7f163c4a11628f55a4df523b3ef84604051610f6f919061160b565b60405180910390a3610f82848484611436565b50505050565b610f90610ab5565b73ffffffffffffffffffffffffffffffffffffffff16610fae610679565b73ffffffffffffffffffffffffffffffffffffffff1614611004576040517f08c379a0000000000000000000000000000000000000000000000000000000008152600401610ffb90611f16565b60405180910390fd5b565b600073ffffffffffffffffffffffffffffffffffffffff168273ffffffffffffffffffffffffffffffffffffffff1603611075576040517f08c379a000000000000000000000000000000000000000000000000000000000815260040161106c90611f82565b60405180910390fd5b61108160008383611431565b80600260008282546110939190611856565b92505081905550806000808473ffffffffffffffffffffffffffffffffffffffff1673ffffffffffffffffffffffffffffffffffffffff168152602001908152602001600020600082825401925050819055508173ffffffffffffffffffffffffffffffffffffffff16600073ffffffffffffffffffffffffffffffffffffffff167fddf252ad1be2c89b69c2b068fc378daa952ba7f163c4a11628f55a4df523b3ef83604051611144919061160b565b60405180910390a361115860008383611436565b5050565b600073ffffffffffffffffffffffffffffffffffffffff168273ffffffffffffffffffffffffffffffffffffffff16036111cb576040517f08c379a00000000000000000000000000000000000000000000000000000000081526004016111c290612014565b60405180910390fd5b6111d782600083611431565b60008060008473ffffffffffffffffffffffffffffffffffffffff1673ffffffffffffffffffffffffffffffffffffffff1681526020019081526020016000205490508181101561125d576040517f08c379a0000000000000000000000000000000000000000000000000000000008152600401611254906120a6565b60405180910390fd5b8181036000808573ffffffffffffffffffffffffffffffffffffffff1673ffffffffffffffffffffffffffffffffffffffff1681526020019081526020016000208190555081600260008282540392505081905550600073ffffffffffffffffffffffffffffffffffffffff168373ffffffffffffffffffffffffffffffffffffffff167fddf252ad1be2c89b69c2b068fc378daa952ba7f163c4a11628f55a4df523b3ef84604051611310919061160b565b60405180910390a361132483600084611436565b505050565b6000600560009054906101000a900473ffffffffffffffffffffffffffffffffffffffff16905081600560006101000a81548173ffffffffffffffffffffffffffffffffffffffff021916908373ffffffffffffffffffffffffffffffffffffffff1602179055508173ffffffffffffffffffffffffffffffffffffffff168173ffffffffffffffffffffffffffffffffffffffff167f8be0079c531659141344cd1fd0a4f28419497f9722a3daafe3b4186f6b6457e060405160405180910390a35050565b600081836113fd91906120c6565b905092915050565b600081836114139190612137565b905092915050565b600081836114299190612168565b905092915050565b505050565b505050565b600081519050919050565b600082825260208201905092915050565b60005b8381101561147557808201518184015260208101905061145a565b60008484015250505050565b6000601f19601f8301169050919050565b600061149d8261143b565b6114a78185611446565b93506114b7818560208601611457565b6114c081611481565b840191505092915050565b600060208201905081810360008301526114e58184611492565b905092915050565b600080fd5b600073ffffffffffffffffffffffffffffffffffffffff82169050919050565b600061151d826114f2565b9050919050565b61152d81611512565b811461153857600080fd5b50565b60008135905061154a81611524565b92915050565b6000819050919050565b61156381611550565b811461156e57600080fd5b50565b6000813590506115808161155a565b92915050565b6000806040838503121561159d5761159c6114ed565b5b60006115ab8582860161153b565b92505060206115bc85828601611571565b9150509250929050565b60008115159050919050565b6115db816115c6565b82525050565b60006020820190506115f660008301846115d2565b92915050565b61160581611550565b82525050565b600060208201905061162060008301846115fc565b92915050565b60008060006060848603121561163f5761163e6114ed565b5b600061164d8682870161153b565b935050602061165e8682870161153b565b925050604061166f86828701611571565b9150509250925092565b600060ff82169050919050565b61168f81611679565b82525050565b60006020820190506116aa6000830184611686565b92915050565b6000806000606084860312156116c9576116c86114ed565b5b60006116d786828701611571565b93505060206116e886828701611571565b92505060406116f98682870161153b565b9150509250925092565b61170c81611512565b82525050565b60006020820190506117276000830184611703565b92915050565b600060208284031215611743576117426114ed565b5b600061175184828501611571565b91505092915050565b6000602082840312156117705761176f6114ed565b5b600061177e8482850161153b565b91505092915050565b6000806040838503121561179e5761179d6114ed565b5b60006117ac8582860161153b565b92505060206117bd8582860161153b565b9150509250929050565b7f4e487b7100000000000000000000000000000000000000000000000000000000600052602260045260246000fd5b6000600282049050600182168061180e57607f821691505b602082108103611821576118206117c7565b5b50919050565b7f4e487b7100000000000000000000000000000000000000000000000000000000600052601160045260246000fd5b600061186182611550565b915061186c83611550565b925082820190508082111561188457611883611827565b5b92915050565b7f6275726e696e6720746f6b656e206d757374206e6f742065786365656473206260008201527f616c616e63650000000000000000000000000000000000000000000000000000602082015250565b60006118e6602683611446565b91506118f18261188a565b604082019050919050565b60006020820190508181036000830152611915816118d9565b9050919050565b7f45524332303a2064656372656173656420616c6c6f77616e63652062656c6f7760008201527f207a65726f000000000000000000000000000000000000000000000000000000602082015250565b6000611978602583611446565b91506119838261191c565b604082019050919050565b600060208201905081810360008301526119a78161196b565b9050919050565b7f696e73756666696369656e742066756e64000000000000000000000000000000600082015250565b60006119e4601183611446565b91506119ef826119ae565b602082019050919050565b60006020820190508181036000830152611a13816119d7565b9050919050565b7f66656541646472657373206e6f74207365740000000000000000000000000000600082015250565b6000611a50601283611446565b9150611a5b82611a1a565b602082019050919050565b60006020820190508181036000830152611a7f81611a43565b9050919050565b7f666565526174696f6e206e6f7420736574000000000000000000000000000000600082015250565b6000611abc601183611446565b9150611ac782611a86565b602082019050919050565b60006020820190508181036000830152611aeb81611aaf565b9050919050565b7f4f776e61626c653a206e6577206f776e657220697320746865207a65726f206160008201527f6464726573730000000000000000000000000000000000000000000000000000602082015250565b6000611b4e602683611446565b9150611b5982611af2565b604082019050919050565b60006020820190508181036000830152611b7d81611b41565b9050919050565b7f45524332303a20617070726f76652066726f6d20746865207a65726f2061646460008201527f7265737300000000000000000000000000000000000000000000000000000000602082015250565b6000611be0602483611446565b9150611beb82611b84565b604082019050919050565b60006020820190508181036000830152611c0f81611bd3565b9050919050565b7f45524332303a20617070726f766520746f20746865207a65726f20616464726560008201527f7373000000000000000000000000000000000000000000000000000000000000602082015250565b6000611c72602283611446565b9150611c7d82611c16565b604082019050919050565b60006020820190508181036000830152611ca181611c65565b9050919050565b7f45524332303a20696e73756666696369656e7420616c6c6f77616e6365000000600082015250565b6000611cde601d83611446565b9150611ce982611ca8565b602082019050919050565b60006020820190508181036000830152611d0d81611cd1565b9050919050565b7f45524332303a207472616e736665722066726f6d20746865207a65726f20616460008201527f6472657373000000000000000000000000000000000000000000000000000000602082015250565b6000611d70602583611446565b9150611d7b82611d14565b604082019050919050565b60006020820190508181036000830152611d9f81611d63565b9050919050565b7f45524332303a207472616e7366657220746f20746865207a65726f206164647260008201527f6573730000000000000000000000000000000000000000000000000000000000602082015250565b6000611e02602383611446565b9150611e0d82611da6565b604082019050919050565b60006020820190508181036000830152611e3181611df5565b9050919050565b7f45524332303a207472616e7366657220616d6f756e742065786365656473206260008201527f616c616e63650000000000000000000000000000000000000000000000000000602082015250565b6000611e94602683611446565b9150611e9f82611e38565b604082019050919050565b60006020820190508181036000830152611ec381611e87565b9050919050565b7f4f776e61626c653a2063616c6c6572206973206e6f7420746865206f776e6572600082015250565b6000611f00602083611446565b9150611f0b82611eca565b602082019050919050565b60006020820190508181036000830152611f2f81611ef3565b9050919050565b7f45524332303a206d696e7420746f20746865207a65726f206164647265737300600082015250565b6000611f6c601f83611446565b9150611f7782611f36565b602082019050919050565b60006020820190508181036000830152611f9b81611f5f565b9050919050565b7f45524332303a206275726e2066726f6d20746865207a65726f2061646472657360008201527f7300000000000000000000000000000000000000000000000000000000000000602082015250565b6000611ffe602183611446565b915061200982611fa2565b604082019050919050565b6000602082019050818103600083015261202d81611ff1565b9050919050565b7f45524332303a206275726e20616d6f756e7420657863656564732062616c616e60008201527f6365000000000000000000000000000000000000000000000000000000000000602082015250565b6000612090602283611446565b915061209b82612034565b604082019050919050565b600060208201905081810360008301526120bf81612083565b9050919050565b60006120d182611550565b91506120dc83611550565b92508282026120ea81611550565b9150828204841483151761210157612100611827565b5b5092915050565b7f4e487b7100000000000000000000000000000000000000000000000000000000600052601260045260246000fd5b600061214282611550565b915061214d83611550565b92508261215d5761215c612108565b5b828204905092915050565b600061217382611550565b915061217e83611550565b925082820390508181111561219657612195611827565b5b9291505056fea2646970667358221220dcf32968569ded6afcacaf5f37840104ef7dba6ace99c471f7e34d0e83757d6564736f6c63430008120033",
  "linkReferences": {},
  "deployedLinkReferences": {}
}