{
  "contractName": "CustomERC20",
  "abi": [
    {
      "inputs": [
        {
          "internalType": "address",
          "name": "_creator",
          "type": "address"
        },
        {
          "internalType": "uint256",
          "name": "_initSupply",
          "type": "uint256"
        },
        {
          "internalType": "string",
          "name": "_name",
          "type": "string"
        },
        {
          "internalType": "string",
          "name": "_symbol",
          "type": "string"
        },
        {
          "internalType": "uint8",
          "name": "_decimals",
          "type": "uint8"
        },
        {
          "internalType": "uint256",
          "name": "_tradeBurnRatio",
          "type": "uint256"
        },
        {
          "internalType": "uint256",
          "name": "_tradeFeeRatio",
          "type": "uint256"
        },
        {
          "internalType": "address",
          "name": "_team",
          "type": "address"
        }
      ],
      "stateMutability": "nonpayable",
      "type": "constructor"
    },
    {
      "anonymous": false,
      "inputs": [
        {
          "indexed": true,
          "internalType": "address",
          "name": "owner",
          "type": "address"
        },
        {
          "indexed": true,
          "internalType": "address",
          "name": "spender",
          "type": "address"
        },
        {
          "indexed": false,
          "internalType": "uint256",
          "name": "amount",
          "type": "uint256"
        }
      ],
      "name": "Approval",
      "type": "event"
    },
    {
      "anonymous": false,
      "inputs": [
        {
          "indexed": true,
          "internalType": "address",
          "name": "user",
          "type": "address"
        },
        {
          "indexed": false,
          "internalType": "uint256",
          "name": "value",
          "type": "uint256"
        }
      ],
      "name": "Burn",
      "type": "event"
    },
    {
      "anonymous": false,
      "inputs": [
        {
          "indexed": false,
          "internalType": "address",
          "name": "oldTeam",
          "type": "address"
        },
        {
          "indexed": false,
          "internalType": "address",
          "name": "newTeam",
          "type": "address"
        }
      ],
      "name": "ChangeTeam",
      "type": "event"
    },
    {
      "anonymous": false,
      "inputs": [
        {
          "indexed": true,
          "internalType": "address",
          "name": "user",
          "type": "address"
        },
        {
          "indexed": false,
          "internalType": "uint256",
          "name": "value",
          "type": "uint256"
        }
      ],
      "name": "Mint",
      "type": "event"
    },
    {
      "anonymous": false,
      "inputs": [
        {
          "indexed": true,
          "internalType": "address",
          "name": "previousOwner",
          "type": "address"
        },
        {
          "indexed": true,
          "internalType": "address",
          "name": "newOwner",
          "type": "address"
        }
      ],
      "name": "OwnershipTransferred",
      "type": "event"
    },
    {
      "anonymous": false,
      "inputs": [
        {
          "indexed": true,
          "internalType": "address",
          "name": "from",
          "type": "address"
        },
        {
          "indexed": true,
          "internalType": "address",
          "name": "to",
          "type": "address"
        },
        {
          "indexed": false,
          "internalType": "uint256",
          "name": "amount",
          "type": "uint256"
        }
      ],
      "name": "Transfer",
      "type": "event"
    },
    {
      "inputs": [],
      "name": "decimals",
      "outputs": [
        {
          "internalType": "uint8",
          "name": "",
          "type": "uint8"
        }
      ],
      "stateMutability": "view",
      "type": "function",
      "constant": true
    },
    {
      "inputs": [],
      "name": "name",
      "outputs": [
        {
          "internalType": "string",
          "name": "",
          "type": "string"
        }
      ],
      "stateMutability": "view",
      "type": "function",
      "constant": true
    },
    {
      "inputs": [],
      "name": "owner",
      "outputs": [
        {
          "internalType": "address",
          "name": "",
          "type": "address"
        }
      ],
      "stateMutability": "view",
      "type": "function",
      "constant": true
    },
    {
      "inputs": [],
      "name": "renounceOwnership",
      "outputs": [],
      "stateMutability": "nonpayable",
      "type": "function"
    },
    {
      "inputs": [],
      "name": "symbol",
      "outputs": [
        {
          "internalType": "string",
          "name": "",
          "type": "string"
        }
      ],
      "stateMutability": "view",
      "type": "function",
      "constant": true
    },
    {
      "inputs": [],
      "name": "team",
      "outputs": [
        {
          "internalType": "address",
          "name": "",
          "type": "address"
        }
      ],
      "stateMutability": "view",
      "type": "function",
      "constant": true
    },
    {
      "inputs": [],
      "name": "totalSupply",
      "outputs": [
        {
          "internalType": "uint256",
          "name": "",
          "type": "uint256"
        }
      ],
      "stateMutability": "view",
      "type": "function",
      "constant": true
    },
    {
      "inputs": [],
      "name": "tradeBurnRatio",
      "outputs": [
        {
          "internalType": "uint256",
          "name": "",
          "type": "uint256"
        }
      ],
      "stateMutability": "view",
      "type": "function",
      "constant": true
    },
    {
      "inputs": [],
      "name": "tradeFeeRatio",
      "outputs": [
        {
          "internalType": "uint256",
          "name": "",
          "type": "uint256"
        }
      ],
      "stateMutability": "view",
      "type": "function",
      "constant": true
    },
    {
      "inputs": [
        {
          "internalType": "address",
          "name": "newOwner",
          "type": "address"
        }
      ],
      "name": "transferOwnership",
      "outputs": [],
      "stateMutability": "nonpayable",
      "type": "function"
    },
    {
      "inputs": [
        {
          "internalType": "address",
          "name": "to",
          "type": "address"
        },
        {
          "internalType": "uint256",
          "name": "amount",
          "type": "uint256"
        }
      ],
      "name": "transfer",
      "outputs": [
        {
          "internalType": "bool",
          "name": "",
          "type": "bool"
        }
      ],
      "stateMutability": "nonpayable",
      "type": "function"
    },
    {
      "inputs": [
        {
          "internalType": "address",
          "name": "owner",
          "type": "address"
        }
      ],
      "name": "balanceOf",
      "outputs": [
        {
          "internalType": "uint256",
          "name": "",
          "type": "uint256"
        }
      ],
      "stateMutability": "view",
      "type": "function",
      "constant": true
    },
    {
      "inputs": [
        {
          "internalType": "address",
          "name": "from",
          "type": "address"
        },
        {
          "internalType": "address",
          "name": "to",
          "type": "address"
        },
        {
          "internalType": "uint256",
          "name": "amount",
          "type": "uint256"
        }
      ],
      "name": "transferFrom",
      "outputs": [
        {
          "internalType": "bool",
          "name": "",
          "type": "bool"
        }
      ],
      "stateMutability": "nonpayable",
      "type": "function"
    },
    {
      "inputs": [
        {
          "internalType": "address",
          "name": "spender",
          "type": "address"
        },
        {
          "internalType": "uint256",
          "name": "amount",
          "type": "uint256"
        }
      ],
      "name": "approve",
      "outputs": [
        {
          "internalType": "bool",
          "name": "",
          "type": "bool"
        }
      ],
      "stateMutability": "nonpayable",
      "type": "function"
    }
  ],
  "bytecode": "0x60806040523480156200001157600080fd5b5060405162001c9238038062001c92833981810160405281019062000037919062000657565b620000576200004b6200026060201b60201c565b6200026860201b60201c565b85600190805190602001906200006f9291906200032c565b508460039080519060200190620000889291906200032c565b5083600260006101000a81548160ff021916908360ff1602179055508660048190555086600860008a73ffffffffffffffffffffffffffffffffffffffff1673ffffffffffffffffffffffffffffffffffffffff16815260200190815260200160002081905550600083101580156200010357506113888311155b62000145576040517f08c379a00000000000000000000000000000000000000000000000000000000081526004016200013c90620007bf565b60405180910390fd5b600082101580156200015957506113888211155b6200019b576040517f08c379a0000000000000000000000000000000000000000000000000000000008152600401620001929062000831565b60405180910390fd5b826005819055508160068190555080600760006101000a81548173ffffffffffffffffffffffffffffffffffffffff021916908373ffffffffffffffffffffffffffffffffffffffff1602179055508773ffffffffffffffffffffffffffffffffffffffff16600073ffffffffffffffffffffffffffffffffffffffff167fddf252ad1be2c89b69c2b068fc378daa952ba7f163c4a11628f55a4df523b3ef896040516200024a919062000864565b60405180910390a35050505050505050620008e5565b600033905090565b60008060009054906101000a900473ffffffffffffffffffffffffffffffffffffffff169050816000806101000a81548173ffffffffffffffffffffffffffffffffffffffff021916908373ffffffffffffffffffffffffffffffffffffffff1602179055508173ffffffffffffffffffffffffffffffffffffffff168173ffffffffffffffffffffffffffffffffffffffff167f8be0079c531659141344cd1fd0a4f28419497f9722a3daafe3b4186f6b6457e060405160405180910390a35050565b8280546200033a90620008b0565b90600052602060002090601f0160209004810192826200035e5760008555620003aa565b82601f106200037957805160ff1916838001178555620003aa565b82800160010185558215620003aa579182015b82811115620003a95782518255916020019190600101906200038c565b5b509050620003b99190620003bd565b5090565b5b80821115620003d8576000816000905550600101620003be565b5090565b6000604051905090565b600080fd5b600080fd5b600073ffffffffffffffffffffffffffffffffffffffff82169050919050565b60006200041d82620003f0565b9050919050565b6200042f8162000410565b81146200043b57600080fd5b50565b6000815190506200044f8162000424565b92915050565b6000819050919050565b6200046a8162000455565b81146200047657600080fd5b50565b6000815190506200048a816200045f565b92915050565b600080fd5b600080fd5b6000601f19601f8301169050919050565b7f4e487b7100000000000000000000000000000000000000000000000000000000600052604160045260246000fd5b620004e5826200049a565b810181811067ffffffffffffffff82111715620005075762000506620004ab565b5b80604052505050565b60006200051c620003dc565b90506200052a8282620004da565b919050565b600067ffffffffffffffff8211156200054d576200054c620004ab565b5b62000558826200049a565b9050602081019050919050565b60005b838110156200058557808201518184015260208101905062000568565b8381111562000595576000848401525b50505050565b6000620005b2620005ac846200052f565b62000510565b905082815260208101848484011115620005d157620005d062000495565b5b620005de84828562000565565b509392505050565b600082601f830112620005fe57620005fd62000490565b5b8151620006108482602086016200059b565b91505092915050565b600060ff82169050919050565b620006318162000619565b81146200063d57600080fd5b50565b600081519050620006518162000626565b92915050565b600080600080600080600080610100898b0312156200067b576200067a620003e6565b5b60006200068b8b828c016200043e565b98505060206200069e8b828c0162000479565b975050604089015167ffffffffffffffff811115620006c257620006c1620003eb565b5b620006d08b828c01620005e6565b965050606089015167ffffffffffffffff811115620006f457620006f3620003eb565b5b620007028b828c01620005e6565b9550506080620007158b828c0162000640565b94505060a0620007288b828c0162000479565b93505060c06200073b8b828c0162000479565b92505060e06200074e8b828c016200043e565b9150509295985092959890939650565b600082825260208201905092915050565b7f54524144455f4255524e5f524154494f5f494e56414c49440000000000000000600082015250565b6000620007a76018836200075e565b9150620007b4826200076f565b602082019050919050565b60006020820190508181036000830152620007da8162000798565b9050919050565b7f54524144455f4645455f524154494f5f494e56414c4944000000000000000000600082015250565b6000620008196017836200075e565b91506200082682620007e1565b602082019050919050565b600060208201905081810360008301526200084c816200080a565b9050919050565b6200085e8162000455565b82525050565b60006020820190506200087b600083018462000853565b92915050565b7f4e487b7100000000000000000000000000000000000000000000000000000000600052602260045260246000fd5b60006002820490506001821680620008c957607f821691505b602082108103620008df57620008de62000881565b5b50919050565b61139d80620008f56000396000f3fe608060405234801561001057600080fd5b50600436106100ea5760003560e01c806385f2aef21161008c57806395d89b411161006657806395d89b411461023d578063a9059cbb1461025b578063e59850f71461028b578063f2fde38b146102a9576100ea565b806385f2aef2146101e3578063870c66d6146102015780638da5cb5b1461021f576100ea565b806323b872dd116100c857806323b872dd1461015b578063313ce5671461018b57806370a08231146101a9578063715018a6146101d9576100ea565b806306fdde03146100ef578063095ea7b31461010d57806318160ddd1461013d575b600080fd5b6100f76102c5565b6040516101049190610cf2565b60405180910390f35b61012760048036038101906101229190610dad565b610353565b6040516101349190610e08565b60405180910390f35b610145610445565b6040516101529190610e32565b60405180910390f35b61017560048036038101906101709190610e4d565b61044b565b6040516101829190610e08565b60405180910390f35b610193610630565b6040516101a09190610ebc565b60405180910390f35b6101c360048036038101906101be9190610ed7565b610643565b6040516101d09190610e32565b60405180910390f35b6101e161068c565b005b6101eb610714565b6040516101f89190610f13565b60405180910390f35b61020961073a565b6040516102169190610e32565b60405180910390f35b610227610740565b6040516102349190610f13565b60405180910390f35b610245610769565b6040516102529190610cf2565b60405180910390f35b61027560048036038101906102709190610dad565b6107f7565b6040516102829190610e08565b60405180910390f35b61029361080e565b6040516102a09190610e32565b60405180910390f35b6102c360048036038101906102be9190610ed7565b610814565b005b600180546102d290610f5d565b80601f01602080910402602001604051908101604052809291908181526020018280546102fe90610f5d565b801561034b5780601f106103205761010080835404028352916020019161034b565b820191906000526020600020905b81548152906001019060200180831161032e57829003601f168201915b505050505081565b600081600960003373ffffffffffffffffffffffffffffffffffffffff1673ffffffffffffffffffffffffffffffffffffffff16815260200190815260200160002060008573ffffffffffffffffffffffffffffffffffffffff1673ffffffffffffffffffffffffffffffffffffffff168152602001908152602001600020819055508273ffffffffffffffffffffffffffffffffffffffff163373ffffffffffffffffffffffffffffffffffffffff167f8c5be1e5ebec7d5bd14f71427d1e84f3dd0314c0f7b2291e5b200ac8c7c3b925846040516104339190610e32565b60405180910390a36001905092915050565b60045481565b6000600960008573ffffffffffffffffffffffffffffffffffffffff1673ffffffffffffffffffffffffffffffffffffffff16815260200190815260200160002060003373ffffffffffffffffffffffffffffffffffffffff1673ffffffffffffffffffffffffffffffffffffffff16815260200190815260200160002054821461050b576040517f08c379a000000000000000000000000000000000000000000000000000000000815260040161050290610fda565b60405180910390fd5b61051684848461090b565b6105a582600960008773ffffffffffffffffffffffffffffffffffffffff1673ffffffffffffffffffffffffffffffffffffffff16815260200190815260200160002060003373ffffffffffffffffffffffffffffffffffffffff1673ffffffffffffffffffffffffffffffffffffffff16815260200190815260200160002054610b7790919063ffffffff16565b600960008673ffffffffffffffffffffffffffffffffffffffff1673ffffffffffffffffffffffffffffffffffffffff16815260200190815260200160002060003373ffffffffffffffffffffffffffffffffffffffff1673ffffffffffffffffffffffffffffffffffffffff16815260200190815260200160002081905550600190509392505050565b600260009054906101000a900460ff1681565b6000600860008373ffffffffffffffffffffffffffffffffffffffff1673ffffffffffffffffffffffffffffffffffffffff168152602001908152602001600020549050919050565b610694610b8d565b73ffffffffffffffffffffffffffffffffffffffff166106b2610740565b73ffffffffffffffffffffffffffffffffffffffff1614610708576040517f08c379a00000000000000000000000000000000000000000000000000000000081526004016106ff90611046565b60405180910390fd5b6107126000610b95565b565b600760009054906101000a900473ffffffffffffffffffffffffffffffffffffffff1681565b60065481565b60008060009054906101000a900473ffffffffffffffffffffffffffffffffffffffff16905090565b6003805461077690610f5d565b80601f01602080910402602001604051908101604052809291908181526020018280546107a290610f5d565b80156107ef5780601f106107c4576101008083540402835291602001916107ef565b820191906000526020600020905b8154815290600101906020018083116107d257829003601f168201915b505050505081565b600061080433848461090b565b6001905092915050565b60055481565b61081c610b8d565b73ffffffffffffffffffffffffffffffffffffffff1661083a610740565b73ffffffffffffffffffffffffffffffffffffffff1614610890576040517f08c379a000000000000000000000000000000000000000000000000000000000815260040161088790611046565b60405180910390fd5b600073ffffffffffffffffffffffffffffffffffffffff168173ffffffffffffffffffffffffffffffffffffffff16036108ff576040517f08c379a00000000000000000000000000000000000000000000000000000000081526004016108f6906110d8565b60405180910390fd5b61090881610b95565b50565b600073ffffffffffffffffffffffffffffffffffffffff168373ffffffffffffffffffffffffffffffffffffffff160361097a576040517f08c379a00000000000000000000000000000000000000000000000000000000081526004016109719061116a565b60405180910390fd5b600073ffffffffffffffffffffffffffffffffffffffff168273ffffffffffffffffffffffffffffffffffffffff16036109e9576040517f08c379a00000000000000000000000000000000000000000000000000000000081526004016109e0906111fc565b60405180910390fd5b6000600860008573ffffffffffffffffffffffffffffffffffffffff1673ffffffffffffffffffffffffffffffffffffffff16815260200190815260200160002054905081811015610a70576040517f08c379a0000000000000000000000000000000000000000000000000000000008152600401610a679061128e565b60405180910390fd5b818103600860008673ffffffffffffffffffffffffffffffffffffffff1673ffffffffffffffffffffffffffffffffffffffff1681526020019081526020016000208190555081600860008573ffffffffffffffffffffffffffffffffffffffff1673ffffffffffffffffffffffffffffffffffffffff1681526020019081526020016000206000828254610b0591906112dd565b925050819055508273ffffffffffffffffffffffffffffffffffffffff168473ffffffffffffffffffffffffffffffffffffffff167fddf252ad1be2c89b69c2b068fc378daa952ba7f163c4a11628f55a4df523b3ef84604051610b699190610e32565b60405180910390a350505050565b60008183610b859190611333565b905092915050565b600033905090565b60008060009054906101000a900473ffffffffffffffffffffffffffffffffffffffff169050816000806101000a81548173ffffffffffffffffffffffffffffffffffffffff021916908373ffffffffffffffffffffffffffffffffffffffff1602179055508173ffffffffffffffffffffffffffffffffffffffff168173ffffffffffffffffffffffffffffffffffffffff167f8be0079c531659141344cd1fd0a4f28419497f9722a3daafe3b4186f6b6457e060405160405180910390a35050565b600081519050919050565b600082825260208201905092915050565b60005b83811015610c93578082015181840152602081019050610c78565b83811115610ca2576000848401525b50505050565b6000601f19601f8301169050919050565b6000610cc482610c59565b610cce8185610c64565b9350610cde818560208601610c75565b610ce781610ca8565b840191505092915050565b60006020820190508181036000830152610d0c8184610cb9565b905092915050565b600080fd5b600073ffffffffffffffffffffffffffffffffffffffff82169050919050565b6000610d4482610d19565b9050919050565b610d5481610d39565b8114610d5f57600080fd5b50565b600081359050610d7181610d4b565b92915050565b6000819050919050565b610d8a81610d77565b8114610d9557600080fd5b50565b600081359050610da781610d81565b92915050565b60008060408385031215610dc457610dc3610d14565b5b6000610dd285828601610d62565b9250506020610de385828601610d98565b9150509250929050565b60008115159050919050565b610e0281610ded565b82525050565b6000602082019050610e1d6000830184610df9565b92915050565b610e2c81610d77565b82525050565b6000602082019050610e476000830184610e23565b92915050565b600080600060608486031215610e6657610e65610d14565b5b6000610e7486828701610d62565b9350506020610e8586828701610d62565b9250506040610e9686828701610d98565b9150509250925092565b600060ff82169050919050565b610eb681610ea0565b82525050565b6000602082019050610ed16000830184610ead565b92915050565b600060208284031215610eed57610eec610d14565b5b6000610efb84828501610d62565b91505092915050565b610f0d81610d39565b82525050565b6000602082019050610f286000830184610f04565b92915050565b7f4e487b7100000000000000000000000000000000000000000000000000000000600052602260045260246000fd5b60006002820490506001821680610f7557607f821691505b602082108103610f8857610f87610f2e565b5b50919050565b7f414c4c4f57414e43455f4e4f545f454e4f554748000000000000000000000000600082015250565b6000610fc4601483610c64565b9150610fcf82610f8e565b602082019050919050565b60006020820190508181036000830152610ff381610fb7565b9050919050565b7f4f776e61626c653a2063616c6c6572206973206e6f7420746865206f776e6572600082015250565b6000611030602083610c64565b915061103b82610ffa565b602082019050919050565b6000602082019050818103600083015261105f81611023565b9050919050565b7f4f776e61626c653a206e6577206f776e657220697320746865207a65726f206160008201527f6464726573730000000000000000000000000000000000000000000000000000602082015250565b60006110c2602683610c64565b91506110cd82611066565b604082019050919050565b600060208201905081810360008301526110f1816110b5565b9050919050565b7f45524332303a207472616e736665722066726f6d20746865207a65726f20616460008201527f6472657373000000000000000000000000000000000000000000000000000000602082015250565b6000611154602583610c64565b915061115f826110f8565b604082019050919050565b6000602082019050818103600083015261118381611147565b9050919050565b7f45524332303a207472616e7366657220746f20746865207a65726f206164647260008201527f6573730000000000000000000000000000000000000000000000000000000000602082015250565b60006111e6602383610c64565b91506111f18261118a565b604082019050919050565b60006020820190508181036000830152611215816111d9565b9050919050565b7f45524332303a207472616e7366657220616d6f756e742065786365656473206260008201527f616c616e63650000000000000000000000000000000000000000000000000000602082015250565b6000611278602683610c64565b91506112838261121c565b604082019050919050565b600060208201905081810360008301526112a78161126b565b9050919050565b7f4e487b7100000000000000000000000000000000000000000000000000000000600052601160045260246000fd5b60006112e882610d77565b91506112f383610d77565b9250827fffffffffffffffffffffffffffffffffffffffffffffffffffffffffffffffff03821115611328576113276112ae565b5b828201905092915050565b600061133e82610d77565b915061134983610d77565b92508282101561135c5761135b6112ae565b5b82820390509291505056fea264697066735822122049ae29c02a64e2d44576eea1630381d26940a38698071eb611e7a28f48b6255364736f6c634300080e0033",
  "immutableReferences": {},
  "source": "// SPDX-License-Identifier: MIT\npragma solidity ^0.8.0;\n\nimport \"@openzeppelin/contracts/utils/math/SafeMath.sol\";\nimport \"@openzeppelin/contracts/access/Ownable.sol\";\n\ncontract CustomERC20 is Ownable {\n    using SafeMath for uint;\n\n    string public name;\n    uint8 public decimals;\n    string public symbol;\n    uint256 public totalSupply;\n\n    uint256 public tradeBurnRatio;\n    uint256 public tradeFeeRatio;\n    address public team;\n\n    mapping(address => uint256) balances;\n    mapping(address => mapping(address => uint256)) internal allowed;\n\n    event Transfer(address indexed from, address indexed to, uint256 amount);\n    event Approval(address indexed owner, address indexed spender, uint256 amount);\n    event Mint(address indexed user, uint256 value);\n    event Burn(address indexed user, uint256 value);\n    event ChangeTeam(address oldTeam, address newTeam);\n\n    constructor(\n        address _creator,\n        uint256 _initSupply,\n        string memory _name,\n        string memory _symbol,\n        uint8 _decimals,\n        uint256 _tradeBurnRatio,\n        uint256 _tradeFeeRatio,\n        address _team\n    ) {\n        name = _name;\n        symbol = _symbol;\n        decimals = _decimals;\n        totalSupply = _initSupply;\n        balances[_creator] = _initSupply;\n\n        require(_tradeBurnRatio >= 0 && _tradeBurnRatio <= 5000, \"TRADE_BURN_RATIO_INVALID\");\n        require(_tradeFeeRatio >= 0 && _tradeFeeRatio <= 5000, \"TRADE_FEE_RATIO_INVALID\");\n        tradeBurnRatio = _tradeBurnRatio;\n        tradeFeeRatio = _tradeFeeRatio;\n        team = _team;\n        emit Transfer(address(0), _creator, _initSupply);\n    }\n\n    function transfer(address to, uint256 amount) public returns (bool) {\n        _transfer(msg.sender, to, amount);\n        return true;\n    }\n\n    function balanceOf(address owner) public view returns (uint256) {\n        return balances[owner];\n    }\n\n    function transferFrom(address from, address to, uint amount) public returns (bool) {\n        require(amount == allowed[from][msg.sender], \"ALLOWANCE_NOT_ENOUGH\");\n        _transfer(from, to, amount);\n        allowed[from][msg.sender] = allowed[from][msg.sender].sub(amount);\n        return true;\n    }\n\n    function approve(address spender, uint amount) public returns (bool) {\n        allowed[msg.sender][spender] = amount;\n        emit Approval(msg.sender, spender, amount);\n        return true;\n    }\n\n    function _transfer(\n        address from,\n        address to,\n        uint256 amount\n    ) internal virtual {\n        require(from != address(0), \"ERC20: transfer from the zero address\");\n        require(to != address(0), \"ERC20: transfer to the zero address\");\n\n        uint256 fromBalance = balances[from];\n        require(fromBalance >= amount, \"ERC20: transfer amount exceeds balance\");\n    unchecked {\n        balances[from] = fromBalance - amount;\n    }\n        balances[to] += amount;\n\n        emit Transfer(from, to, amount);\n    }\n}\n",
  "sourcePath": "/Users/voyager-1/development/3th_eth_homework/lesson_6/contracts/CustomERC20.sol",
  "compiler": {
    "name": "solc",
    "version": "0.8.14+commit.80d49f37.Emscripten.clang"
  },
  "schemaVersion": "3.4.7",
  "updatedAt": "2023-04-23T08:24:09.804Z",
  "networkType": "ethereum",
  "devdoc": {
    "kind": "dev",
    "methods": {
      "owner()": {
        "details": "Returns the address of the current owner."
      },
      "renounceOwnership()": {
        "details": "Leaves the contract without owner. It will not be possible to call `onlyOwner` functions anymore. Can only be called by the current owner. NOTE: Renouncing ownership will leave the contract without an owner, thereby removing any functionality that is only available to the owner."
      },
      "transferOwnership(address)": {
        "details": "Transfers ownership of the contract to a new account (`newOwner`). Can only be called by the current owner."
      }
    },
    "version": 1
  },
  "userdoc": {
    "kind": "user",
    "methods": {},
    "version": 1
  }
}